:100000000C9434000C943E000C943E000C943E0082
:100010000C943E000C943E000C943E000C943E0068
:100020000C943E000C943E000C943E000C943E0058
:100030000C943E000C943E000C943E000C943E0048
:100040000C943E000C943E000C943E000C943E0038
:100050000C943E000C943E000C943E000C943E0028
:100060000C943E000C943E0011241FBECFEFD8E04C
:10007000DEBFCDBF0E9440000C9459000C940000DC
:1000800080E284B983EC8AB98CE38BB929B139B1A8
:1000900089B1982F907189B122FD02C033FD07C04C
:1000A000911105C080E295B1892B85B9EFCF80729F
:0600B000FACFF894FFCF27
:00000001FF
